:020000040800F2
:10000000F80A0020ED010008FD490008C52000089D
:10001000F9490008BD0B0008315A00080000000033
:10002000000000000000000000000000A94E0008D1
:10003000AD0C000800000000A54E0008CD500008DF
:10004000070200080702000807020008070200086C
:100050000702000807020008B10C0008BD0C0008E8
:10006000C90C0008D50C000807020008C10B0008E5
:10007000D10B0008E10B0008070200080702000886
:10008000070200080702000811080008070200081C
:10009000070200080702000807020008070200081C
:1000A000070200080702000807020008070200080C
:1000B00007020008070200080702000807020008FC
:1000C00007020008070200080702000807020008EC
:1000D00007020008E559000807020008F559000862
:1000E00007020008070200080702000807020008CC
:1000F00007020008070200080702000807020008BC
:1001000007020008070200080702000807020008AB
:10011000070200080702000807020008070200089B
:10012000070200080702000807020008070200088B
:10013000070200080702000807020008070200087B
:10014000070200080702000807020008070200086B
:10015000070200080702000807020008070200085B
:10016000070200080702000807020008070200084B
:10017000070200080702000807020008070200083B
:10018000070200080702000807020008070200082B
:10019000070200080000000007020008070200082C
:1001A000070200080702000807020008070200080B
:1001B00007020008070200080702000807020008FB
:1001C00007020008070200080702000807020008EB
:1001D0000702000807020008DFF80CD000F060FA00
:1001E00000480047755E0008F80A0020064880476E
:1001F00006480047FEE7FEE7FEE7FEE7FEE7FEE70C
:10020000FEE7FEE7FEE7FEE779510008D9010008A6
:100210002DE9F05F0546002092469B46884606463B
:10022000814640241BE0284641464746224600F0CE
:1002300045F853465A46C01A914110D31146184604
:10024000224600F02CF82D1A67EB01084F46224693
:100250000120002100F023F817EB00094E41201E79
:10026000A4F10104DFDC484631462A464346BDE896
:10027000F09F30B50B46014600202022012409E002
:1002800021FA02F59D4205D303FA02F5491B04FA4F
:1002900002F52844151EA2F10102F1DC30BD202A2E
:1002A00004DB203A00FA02F1002070479140C2F1CD
:1002B000200320FA03F3194390407047202A04DBFF
:1002C000203A21FA02F00021704721FA02F3D040CF
:1002D000C2F120029140084319467047F0B400F083
:1002E000004221F0004120F00040CE0DC30DC1F3CB
:1002F000160141F40001C0F316004C42154640F4CB
:100300000000761E09E010EB440002D582F00042A6
:1003100040428842F7D840005B1EB342F9DA18B178
:10032000F0BC002100F0E9B92846F0BC70472DE987
:10033000FE4F804681EA0300C00F0C46009021F07A
:10034000004123F00045B8EB0200A94105D2404628
:10035000214690461C460B46024623F000401043BF
:1003600047D0270DC7F30A00C3F30A510290401A81
:10037000019040286BDAC3F3130040F4801B00980F
:10038000924620B10023D2EB030A63EB0B0B0198DA
:100390005946C0F140025046FFF781FF06460D4620
:1003A00050465946019A00F08DF910EB0800614162
:1003B000002487EA115284EAE7731A4340D0009A76
:1003C00062B3019A012A4FEA075215DC001B61EB68
:1003D00002014FF0004202EA0752CDE90042001C40
:1003E00041F5801132462B4600F0C4F903B0BDE858
:1003F000F08F40462146F9E7001B61EB0201001C2B
:1004000041F5801300185B412018A2F5001747EB57
:10041000030140EAD570B6196D4111E06D084FEA4D
:10042000360645EAC0754FEA0752001B61EB020130
:10043000001C41F5801149084FEA30000019514174
:1004400032462B4603B0BDE8F04F00F084B9009867
:10045000012240000023D0EB020263EBE07300981E
:1004600021464FEAE074B8EB000061EB0401E9E7D4
:1004700083F000435BE781F0004158E72DE9FE4F30
:1004800081EA030404F0004421F0004100944FF09D
:10049000000B23F0004350EA01045ED052EA03044B
:1004A0005BD0C3F30A54C1F30A552C44A4F2F334CD
:1004B0000194A0FB0254C1F3130141F48011C3F372
:1004C000130343F4801301FB024400FB034E840A30
:1004D000970A44EA815447EA8357A4FB07680295C8
:1004E0008D0A05FB07854FEA932C04FB0C54270566
:1004F000029D4FEA065847EA1637B5EB08056EEB42
:10050000070C870E920E47EA811742EA8312A7FB77
:100510000201B6EB0B0164EB00042B0D43EA0C3334
:100520005E1844EB1C50DA465146E7FB0201C5F366
:1005300013044FEA0B3343EA14534FEA0432019C8D
:1005400043EA0603A4F10C040294009CCDE900B434
:1005500000F010F903B0BDE8F08F00200146F9E784
:100560002DE9F04D81EA030404F0004B21F0004531
:1005700014464FF0000A23F0004150EA050220D053
:1005800054EA01021DD0C5F30A570246C5F313030E
:10059000C1F31300C1F30A5640F4801543F48013ED
:1005A000A7EB0608101BD64608F2FD3873EB0500D2
:1005B00002D308F1010801E092185B41B8F1000F85
:1005C00003DA00200146BDE8F08D00204FF48011D1
:1005D000064684460EE0171B73EB050705D3121B76
:1005E00063EB050306434CEA010C49084FEA30006F
:1005F00092185B4150EA0107EDD152EA030012D094
:1006000082EA040083EA0501084305D0101BAB41D0
:1006100006D20122002306E000224FF0004302E050
:100620006FF0010253101AEB06004CEB085110EB6F
:100630000A0041EB0B01BDE8F04D00F08CB8C1F3AE
:100640000A52C1F3130140F2FF3341F480119A4280
:1006500002DA00200146704740F233439A42A2F288
:10066000334202DC5242FFF729BEFFF718BE0000FA
:1006700030B5041E71F1000404DB4FF00044404229
:1006800064EB0101141E73F1000405DB1C464FF0FE
:100690000043524263EB0403994208BF904230BDCD
:1006A000064C074D06E0E06840F0010394E80700BF
:1006B00098471034AC42F6D3FFF792FD3C6C00082B
:1006C0005C6C0008202A06DBCB17203A41FA02F0C6
:1006D00043EAE07306E041FA02F3D040C2F120029F
:1006E00091400843194670470029A8BF7047401C35
:1006F000490008BF20F00100704710B4B0FA80FC38
:1007000000FA0CF050EA010404BF10BC704749B174
:10071000CCF1200421FA04F411FA0CF118BF0121E4
:1007200021430843A3EB0C01CB1D4FEA00614FEAC4
:10073000102042BF002010BC704700EBC350104493
:100740000029A4BF10BC7047401C490008BF20F01E
:10075000010010BC704710B5141E73F1000408DAD4
:10076000401C41F1000192185B411A4301D120F075
:10077000010010BD2DE9F04D92469B4611B1B1FA32
:1007800081F202E0B0FA80F220329046FFF787FD56
:1007900004460F4640EA0A0041EA0B0153465A4616
:1007A000084313D0114653EA010019D0C8F14002A2
:1007B0005046FFF783FD05460E46504659464246D1
:1007C000FFF76DFD084305D0012004E020463946BF
:1007D000BDE8F08D0020054346EAE0762C43374320
:1007E0000A986305E40AA0EB08000022FD0A44EA27
:1007F00047540A3002D500200146E9E701051019E7
:100800006941DDE9084500196941BDE8F04DA2E7FD
:1008100080B501F007FE012818BF80BD00F00AF87E
:1008200040F25800C2F2000001680131016001F09D
:100830001FFD80BD2DE9F04F83B005F0D3FB40F2E2
:100840001000C2F20000006840B140F27010C2F225
:10085000000000F049F903B0BDE8F08F40F2F45B0E
:10086000C2F2000BBBF800000130ABF8000002F050
:1008700045F840F2946940F2A805C2F20009C2F2BC
:10088000000540F2A0024FF0000AC2F20002484602
:1008900029460023CDF800A001F016FC99F80400C9
:1008A00040F2E4180528284640F2DC07C2F20008AE
:1008B00008BF08F10C000168C2F20007384640F892
:1008C000041B00EE101A07F1080105F091F940F23F
:1008D000441440F27010C2F20004C2F2000021463B
:1008E00005F026FA94ED000A94ED011A94ED022A1F
:1008F00040F2EC5640F2D850C2F20006B1EE400A87
:10090000C2F20000B1EE411AB1EE422A314680ED4A
:10091000000A80ED011A80ED022A05F0DDF840F2B0
:10092000E454C2F20004304621463A4605F040FB4A
:10093000BBF80010686840F25C07C2F20007142997
:1009400038600FD340F2846040F2E41140F21C1290
:10095000C2F20000C2F20001C2F2000205F050FB38
:10096000ABF800A099F8040040F21C1105F1080250
:10097000C2F20001052808BF01F10802106840F228
:10098000B405D4E90012C2F20005C5E900023846F8
:10099000796004F0FBF9284604F0F8F940F2D81029
:1009A000C2F20000414605F0ADF8B86840F2E461DB
:1009B000AA68C2F2000140F2EC64C1E90002C2F28E
:1009C000000440F2DC02C2F20002204605F024FAE4
:1009D00040F2306540F2840140F2E802C2F20005C4
:1009E000C2F20001C2F2000220462B46CDF800A060
:1009F000CDF804A004F05AFA404605F049F998ED04
:100A0000040ADFED150A05F021FA88ED040A01F069
:100A10004DFF95ED000A4FF48020BCEEC00A10EEA9
:100A2000101A02F009FB95ED010A4FF40020BCEE0C
:100A3000C00A10EE101A02F0FFFA95ED020A4FF408
:100A40000010BCEEC00A10EE101A02F0F5FA05F024
:100A5000E5FA03B0BDE8F08F6F12033B10B54FF01D
:100A6000A04001F061FD00BF4FF0A04001F0E0FCAC
:100A70000028F9D14FF0A04001F04AFC4FF0A0400F
:100A800001F0CCFC0028F9D040F200144FF0A04057
:100A9000C5F2000401F0E8FB01F04EFC204601F035
:100AA00043FD00BF204601F0C3FC0028FAD12046D8
:100AB00001F02EFC204601F0B1FC0028FAD02046BF
:100AC00001F0D2FB01F02EFC4FF0A04001F086FCBB
:100AD000204601F083FC4FF0A04001F0EBFC2046E3
:100AE00001F0E8FC10BD00002DE9F0410168B1F50E
:100AF000967F60DC8022C5F200021368D0E903858E
:100B0000D0E9016C2B4403615568446901312C44E0
:100B1000446195688769B1F5967F3D448561D2F857
:100B200000713E444660D2F804710CEB070EC0F829
:100B300008E0D2F80821016008EB020CC0F80CC0F4
:100B400018BFBDE8F08148F2B511C1F64E3153FB34
:100B500001F2531103EBD272826254FB01F2531182
:100B600003EBD272C26255FB01F2531103EBD27256
:100B7000026356FB01F2531103EBD2725EFB01F3E9
:100B80005F1107EBD3730C335CFB01F103624B1174
:100B900003EBD1710C310C3241620021C0E900112C
:100BA000C0E90211C0E90411C0E9061240F21000C8
:100BB000C2F200000160BDE8F0810000FEE7000025
:100BC00080B540F2C820C2F2000000F045F980BDB7
:100BD00080B540F22830C2F2000000F03DF980BD3F
:100BE00080B540F28830C2F2000000F035F980BDD7
:100BF00080B501686FF007024CF6CD4352FA81F2DE
:100C0000CCF6CC43A2FB032C40F20842C4F2020211
:100C1000D0F844E002F58363914238BF02F57E7359
:100C20002EF00301194402F58F6ECCF30413012258
:100C30009A40C0E9121E026580BD0000017940F6AD
:100C400000120139C4F2020202EB810302F1400CEE
:100C500001F01F01012202FA01F1C0E9153CC16552
:100C60007047000070B5D0E913C4D0F854E0CCF858
:100C70000440BEF1000F1CBFD0E916C4CCF80440FC
:100C8000D0E9106E0468D0F808C00EF01F000125EE
:100C900005FA00F0706008466360BCF1100F04BFF5
:100CA00010460A46A060E26070BD00007047000078
:100CB00080B5012000F068FB80BD000080B50220F7
:100CC00000F062FB80BD000080B5042000F05CFBFA
:100CD00080BD000080B5082000F056FB80BD0000FC
:100CE000EFF3108072B600BFFEE7000080B546F655
:100CF0000002C4F20002036802F57051D0E90DCE83
:100D0000934204BF4AF25071C4F2000102F58062BE
:100D1000934208BF01F5D4610164D3F8802022F426
:100D2000F81242EA0C42C3F8802001F170024264DA
:100D3000D3F8802022F0706242EA0E62C3F880206D
:100D400001F1B002826401F5C472C26401F5187247
:100D5000026501F51E72426501F55470002200BF64
:100D600041F8042B8142FBD380BD000080B50146D1
:100D700090F82500022824D10868D1E910CE8A6CA9
:100D8000036823F00E030360136823F48073136079
:100D9000026822F0010202600EF01F00012202FA36
:100DA00000F0CCF80400D1E913205060486D60B128
:100DB000026822F480720260D1E9160242600020CB
:100DC00004E00420C863012000E00020012281F833
:100DD0002520002281F8242080BD000080B590F8F5
:100DE000251002292DD10168D0E910CE826C0B6844
:100DF00023F00E030B600B6823F001030B601168F6
:100E000021F4807111600EF01F02012101FA02F23B
:100E1000CCF80420D0E913325A60426D32B1136825
:100E200023F480731360D0E91623536080F82510F3
:100E3000826B002180F824100AB1904700210846F7
:100E400080BD0421C1630121002280F8251080F8B3
:100E50002420084680BD0000B0B50268D0E910C467
:100E6000DCF80050136804F01F0E590712D5042156
:100E700001FA0EF414EA05010CD01168890603D4B6
:100E8000116821F004011160CCF80440016BB9B382
:100E90008847B0BD990718D5022101FA0EF414EA6B
:100EA000050112D01168890606D4116821F00A01E3
:100EB0001160012180F82510CCF80440C16A00229D
:100EC00080F82420E1B18847B0BD190758BFB0BDF4
:100ED000082101FA0EF1294012D0116821F00E010B
:100EE0001160012101FA0EF2CCF80420C16380F8F0
:100EF0002510416B0022002980F8242018BF884764
:100F0000B0BD0000002804BF012070472DE9F0416A
:100F100040F2000C0446C4F2020C00684FF6F833AD
:100F20000CF58162CBF6FD73904238BF03F5806308
:100F300000EB03024CF6CD43CCF6CC43A2FB0323DB
:100F400004F1080E0CF580616FF003059EE8044182
:100F50003CBF0021C4F2020105EA9303C4E9101367
:100F6000022184F82510016847F6F073994304F1D3
:100F700014071143E8CF41EA080141EA0E01194381
:100F800029433143394301602046FFF731FEA06811
:100F900004F14803B0F5804F04BF00206060606832
:100FA0000ECBC7B2013803280F60536009D8204622
:100FB000FFF744FE04F1540207CA002303604A60AD
:100FC00003E00020C4E91500E06500200121E06392
:100FD00084F8251084F82400BDE8F08110B504469B
:100FE00090F82400012820D0012084F8240094F8EF
:100FF0002500012816D1022084F825000020E06396
:10100000D4F800C0DCF8000020F00100CCF80000AB
:101010002046FFF727FE2068226B01683AB141F0B5
:101020000E010AE0002084F82400022010BD21F007
:1010300004010160016841F00A010160A06C0168CF
:10104000C90303D5016841F480710160606D18B176
:10105000016841F4807101602068016841F001017C
:101060000160002010BD0000B0B5D8B1044690F872
:101070005C0028B9002084F85D00204600F0B4F838
:101080002068816921F01001816100F069FA05464C
:1010900020688169090707D500F062FA401B0B2818
:1010A000F6D312E00120B0BD816941F001018161F8
:1010B00000F056FA054600BF20688169C9070DD1C6
:1010C00000F04EFA401B0B28F6D3206E032140F0AF
:1010D00001002066012084F85C10B0BD826946F2F0
:1010E0000041C4F2000142F002028842826102D152
:1010F0006268C1F80021217C8269012922F0400246
:1011000018BF40328261617C8269012922F48042E9
:1011100008BF02F580428261A17C8269012922F424
:10112000805218BF02F5805282618169D4E902C2FF
:1011300021F4407343EA0C038361836923F0A40321
:101140008361036923F010030361AAB1022A0FD05F
:10115000012A03D1826942F004020CE08369032A68
:1011600043F080038361036943F01003036103D1FB
:10117000826942F020028261D4E90552D4E9073144
:101180006FF0FF0E013A0EEB032343EA42620023A5
:101190000139CFF6FF73114303EB05421143BCF550
:1011A000407FC16110D1D4E909C2D4E90B51013AA1
:1011B0000EEB05252A436FF00F0505EB01111143D6
:1011C00003EB0C421143C160E16BD0F8C020114326
:1011D000C0F8C0102046FFF789FD00200121A0655E
:1011E000206684F85C10B0BD10B586B00024CDE94F
:1011F0000444CDE90244006846F60041C4F200010F
:101200008842019401D006B010BD02F0DBF941F232
:101210004C00C4F20200C16841F00071C160C168B5
:1012200001F0007100910099016841F00201016034
:10123000006801A900F002000090009818200190B9
:101240000220CDE902040B20059040F20040C4F6D4
:101250000000049400F0A6F806B010BD10B50138E7
:10126000072888BF10BDDFE800F0041C753D7575C8
:10127000755E40F20404C2F2000420684FF480510D
:10128000B0FA80F0400920604FF0904000F05AF929
:101290003BA004F063FE206800285CD001F0D2FC83
:1012A00010BD40F60000C4F600004FF4004100F00D
:1012B00049F940F29060C2F2000090ED000A9FED03
:1012C0002A1A9FED2C2A30EE010AB4EE420AF1EE02
:1012D00010FAC8BFB0EE420A80ED000A26A004F062
:1012E0003DFE10BD40F60000C4F600004FF4804102
:1012F00000F028F940F29060C2F2000090ED000A80
:101300009FED181A9FED182A30EE010AB4EE420A3A
:10131000F1EE10FAB8BFB0EE420A80ED000A13A059
:1013200004F01CFE10BD4FF090404FF4805100F0CF
:1013300009F940F60004C4F6000420464FF40041C9
:1013400000F000F920464FF4804100F0FBF803A0C4
:1013500004F004FE10BD01F0EDFB10BD4B657934C7
:101360000D0A0000000048C2000048424B65793376
:101370000D0A0000000096444B6579320D0A00000A
:101380004B6579310D0A000080B540F21441C4F27A
:1013900001010A68024208BF80BD0860FFF75EFFD6
:1013A00080BD00002DE9F04F83B00D68002D00F0E6
:1013B000C58000F138424FEAB22241F20047019263
:1013C000C4F600070622002600244FF0010AB842A6
:1013D00008BF0522009209E00D68043435FA0AF2CC
:1013E0000AF1010A06F1020600F0A880AAF1010C38
:1013F000012202FA0CFB15EA0B09EDD0D1F80480AA
:1014000008F00305A5F1010EBEF1010F11D88768A0
:101410000322CB68B24027EA0202B3401A4382603B
:101420004268C8F3001322EA0B0203FA0CF31A43D2
:101430004260032D1CD0C26803238F68B3409A43D7
:1014400007FA06F31A43022DC26011D16FF00302AE
:1014500002EA5C02024404F01C070F23D2F820E0E9
:1014600003FA07F50B692EEA0505BB402B4313620F
:10147000026803234F68B3409A4307F00303B34065
:101480001A4317F4403F0260A6D041F26003C4F251
:1014900002031A6840F2004E42F001021A601A6814
:1014A000C4F2010E02F001020292029A2CF0030231
:1014B0004FF608487244CFF6FF7852F8083004F02F
:1014C0000C070F25BD4023EA050C019B009D052B51
:1014D00038BF1D4605FA07F747EA0C0342F8083003
:1014E000DEF808204B6842EA090740F20C4CDD02A6
:1014F00058BF22EA0907CEF80870C4F2010CDCF8E4
:1015000000209D0242EA090758BF22EA0907CCF8E9
:101510000070DEF804209D0342EA090758BF22EA62
:101520000907CEF80470DEF80020DB0342EA090761
:1015300058BF22EA0907CEF800704DE703B0BDE8B6
:10154000F08F0000426902EA0103914341EA03413E
:10155000816170471823002A08BF2823C1507047B3
:1015600040F2F460C2F200000068704740F24C00A4
:1015700040F2F461C2F20000C2F2000100680A68A1
:10158000104408607047000080B5032000F068F840
:10159000002000F009F800281CBF012080BD00F0E9
:1015A0002FF8002080BD0000B0B540F24C01C2F21F
:1015B0000001096801B3044640F20800C2F20000CD
:1015C0004FF47A720068B2FBF1F1B0FBF1F000F079
:1015D0006DF90F2C4FF001050CD858B94FF0FF30C2
:1015E00021460022002500F02BF840F25000C2F204
:1015F000000004602846B0BD01252846B0BD0000AB
:1016000080B582B041F25800C4F20200816841F016
:1016100001018160816801F0010101910199016876
:1016200041F080510160006800F080500090009807
:1016300000F01AF802B080BD80B504F003FA80BD56
:1016400070B514460D46064604F014FA29462246A3
:1016500003F0D8F90146304604F01CFA70BD0000D2
:1016600080B504F029FA80BD47F20800C4F20000FA
:10167000016841F4804101607047000040F20800B9
:10168000C2F200000068704780B5FFF7F7FF41F233
:101690000801C4F20201096846F69032C1F3022142
:1016A000C0F60002515C01F01F01C84080BD00007F
:1016B00080B5FFF7E3FF41F20801C4F202010968B7
:1016C00046F69032C1F3C221C0F60002515C01F02F
:1016D0001F01C84080BD000041F20C01C4F20201AC
:1016E00051F8040C42F20042C0F2F40200F00C0087
:1016F0000428104608BF704751F8040C00F00C0095
:10170000082841F60030C0F2B70021D051F8043C5F
:1017100003F00C030C2B1CBF00207047D1F800C055
:101720000B680CF0030CC3F303130133BCF1030F7C
:1017300008BF02460868B2FBF3F20968C0F306204E
:101740005043C1F34161022202EB4101B0FBF1F0D1
:1017500070470000002804BF01207047B0B5044660
:10176000406A20B10020206104F1140005E06068A7
:10177000B0F5827F03D004F11C0000210160002538
:10178000A56294F85D0020B9204684F85C5000F012
:1017900053F8022084F85D002068D4F80CE0026859
:1017A000BEF5E06F22F0400202604EF4006298BF86
:1017B0000125B2F5706F1CBF0023A3624FEA053C00
:1017C000D4E90135D4E9042103F4827305F4044516
:1017D0002B4402F002021A44A36901F00101E569F9
:1017E000114403F40072114405F03802256A1144D3
:1017F00005F08002A56A114405F40052114301600E
:101800000421626A0EF4706501EA1341636B45EAD4
:101810000C0502F01002294303F008031143194399
:101820004160C16921F40061C1610020012120668D
:1018300084F85D10B0BD000080B586B00021CDE910
:101840000411CDE90211006843F60042C4F200021F
:101850009042019101D006B080BD41F24C00C4F22B
:101860000200C26842F40042C260C26802F4004250
:101870000092009A026842F004020260006800F0E0
:101880000400009000984FF4E05001900220CDE950
:1018900002010620059040F600000491C4F6000005
:1018A00001A9FFF77FFD06B080BD000080B503F001
:1018B000F5FB80BD90F88410012904BF0220704719
:1018C0002421C0F8881002681168136823F001030E
:1018D000136021F000530021416613602022C0F8FC
:1018E000882080F8841008467047000010B5044630
:1018F000D0F88C0020281CBF022010BD00294FF01A
:10190000010018BF002A1BD00120E06600202067DC
:10191000204603F0B3FF002818BF10BDE16E012977
:101920001CBF012010BD216810220A62216851E805
:10193000001F226841F0100142E80013002BF5D18E
:1019400010BD00007047000070470000B0B50446AD
:1019500090F88400012804BF0220B0BD012084F863
:1019600084002420C4F8880020680568026822F0FA
:1019700001020260826822F06062114381602046A9
:1019800003F004FC206805602020C4F888000020D3
:1019900084F88400B0BD0000B0B5044690F884001F
:1019A000012804BF0220B0BD012084F88400242057
:1019B000C4F8880020680568026822F0010202600D
:1019C000826822F0604211438160204603F0DEFB12
:1019D000206805602020C4F88800002084F8840076
:1019E000B0BD000070470000704700007047000065
:1019F00070B503680446D96940F62F001E68D3F815
:101A000008E0084020280CD106F020000EF080529B
:101A1000801806D0616F002900F0AE80204688470C
:101A200070BD40F60F00084000F08E800120C1F22A
:101A300000000EEA000C40F22010C0F200403040DE
:101A400010EB0C0000F08080C80718BF16F48070FF
:101A500007D001201862D4F8900040F00100C4F8CB
:101A6000900088070EF0010208D53AB102201862F2
:101A7000D4F8900040F00400C4F89000480708D55E
:101A80003AB104201862D4F8900040F00200C4F883
:101A9000900008070CD506F0200050EA0C0007D093
:101AA00008201862D4F8900040F00800C4F89000B4
:101AB00008050BD516F0806008D04FF4006018625E
:101AC000D4F8900040F02000C4F89000D4F89000C2
:101AD000002851D011F020001EBF06F020000EF0AB
:101AE000805110EB010040F0F2802068D4F8901093
:101AF000806801F0280100F04000401800F0E0800C
:101B0000204603F0F3FC20688068400640F1C9805D
:101B1000206850E8020F216820F0400041E80202EE
:101B2000002AF5D1D4F88000002800F0BA8045F2F0
:101B30008931C0F600018163FFF750F9E0B1D4F8B4
:101B40008000816B884770BDE06E06EA0102D50611
:101B50003FD501283DD1102018629868400644D432
:101B6000B4F85C00B4F85E10B4F85E20002A1CBF24
:101B7000401A5FEA004101D170BD00BF216851E801
:101B8000001F226821F4907142E80013002BF5D168
:101B90004FF6FE71CEF6FF71226852E8022F2368DD
:101BA0000A4043E80226002EF6D12021C4F88C100A
:101BB0000021E166616700BF216851E8001F2268CB
:101BC00021F0100142E80013002BF5D1022121671A
:101BD00055E0C80258D51EF4800055D04FF480104F
:101BE00018622046FFF700FF70BDD4F8800000683F
:101BF00041688AB2002ABFD0B4F85C309A42BBD2A6
:101C0000A4F85E100068800632D400BF206850E857
:101C1000000F216820F4807041E80002002AF5D10D
:101C2000206850E8020F216820F0010041E802021C
:101C3000002AF5D1206850E8020F216820F040000A
:101C400041E80202002AF5D12020C4F88C000020CF
:101C5000E06600BF206850E8000F216820F0100007
:101C600041E80002002AF5D1D4F88000FFF77EF8A1
:101C700002202067B4F85C00B4F85E10401A81B20C
:101C80002046FFF75FFE70BD08060ED506F0800007
:101C90000EF40003C01808D0A16F00297FF4BEAE77
:101CA0006AE72046FFF7A2FE70BD500616D4080270
:101CB00018D516F0804015D02046FFF793FE70BD72
:101CC0002046FFF793FE0020C4F8900070BD616FBE
:101CD00000293FF40AAF2046884706E7204603F074
:101CE00033FC70BDC8017FF547AFB6F1FF3FC8BFF9
:101CF00070BD2046FFF728FE70BD000010B5D8B1BA
:101D00000446D0F8880028B9002084F884002046D2
:101D100000F026F82420C4F888002068A16A026830
:101D200022F00102026011B1204603F059FA204668
:101D300003F036FC012801D1012010BD2068416864
:101D400021F490414160816821F02A01816001689D
:101D500041F001010160204603F0B6FA10BD000019
:101D60002DE9F04387B00026CDE90566CDE903668D
:101D70000446006844F60001C4F20001884202965D
:101D800000F0838043F60001C4F20101884240F074
:101D9000D08040F208084FF44030C4F2020801F04D
:101DA00037FC41F24C00C4F20200416902AD41F43B
:101DB0008041416141694FF0020901F48041019184
:101DC00001990168002741F00401016001680726BC
:101DD00001F0040101910199016841F001010160E4
:101DE0000068294600F0010001900198202002902F
:101DF00040F20040C4F6000000F58060CDF80C9081
:101E0000CDE904770696FFF7CDFA4FF40070CDE9DF
:101E100002094FF090402946CDE904770696FFF776
:101E2000C1FA40F2C825C2F2000518208026C5E993
:101E300000802846C5E90277C5E90467C5E9067749
:101E40002F62FFF75FF8002818BFFEF749FFC4F8BC
:101E50008050AC6240F2283508F11400C2F200054F
:101E60001921102285E887002846C5E90467C5E9DD
:101E700006772F62FFF746F8002818BFFEF730FFFD
:101E8000E56705F1280025254AE04FF4401001F0F0
:101E9000BFFB41F24C00C4F20200C16841F4802152
:101EA000C160C16801F4802101910199016841F08C
:101EB00002010160006802A900F00200019001988F
:101EC0004FF4406002900220CDE903060320059004
:101ED0000720069040F20040C4F60000FFF762FAC7
:101EE0000820C4F2020040F288352830C2F2000512
:101EF0001C21802285E843004FF48050C5E903622D
:101F0000C5E9056628622846EE61FEF7FBFF00285A
:101F100018BFFEF7E5FEC4F8805005F1280027251C
:101F20000460284600210022FFF78AFB2846FFF7BD
:101F300083FB07B0BDE8F0837047000070470000E6
:101F40002DE9F04182B00446D0F8880020283FD126
:101F50000E4600294FF001004BD01746002A48D00A
:101F60004FF0000821201D46C4F89080C4F8880076
:101F7000FFF7F6FAA4F85470A4F85670A168074663
:101F8000B1F5805F0FD12069002814BF3046B046FC
:101F9000064608E016F8010B21688862B4F856007E
:101FA0000138A4F85600B4F85600A8B120468021A4
:101FB00000223B46009503F0B3FCE8B9002EE9D1BE
:101FC00038F8020B21686FF35F2088620026E5E78E
:101FD000022002B0BDE8F0812046402100223B46AD
:101FE000009503F09DFC2021C4F88810002818BF3C
:101FF000032002B0BDE8F0812020C4F8880003204F
:1020000002B0BDE8F081000010B50446D0F88800A9
:1020100020281CBF022010BD61B3134652B32165B6
:1020200000212120A4F85430A4F85630C4F89010B0
:10203000C4F88800E06FF8B145F29D42C0F6000296
:10204000C262226845F2E14C45F29D3E8163216DFA
:10205000C0F6000CC0F6000E2832C0F830C0C0F840
:1020600034E0FEF7BBFF38B11020C4F89000202008
:10207000C4F88800012010BD20684021016200BF23
:10208000206850E8020F216840F0800041E8020219
:10209000002AF5D1002010BD006843F60001C4F20B
:1020A0000101884218BF704740F24800C2F20000A8
:1020B00001210170704700007047000080B500F0FA
:1020C000BDFE80BDFEE7000070B505460C46006809
:1020D00029790130052928604DD80FF20602DFE882
:1020E00001F003101A24304040F20400C2F2000054
:1020F00001680020012968713DD1286040F201107B
:1021000038E00121B0F57A7F697123D3002028607F
:10211000022028712FE00221B0F57A7F697119D36E
:102120000020286040F2033024E049F640420321B9
:10213000904269710ED340F20440A88000202860CC
:1021400019E004211428697104D340F20550A880D5
:102150000020286040F20400C2F20000006850B97C
:1021600007E040F20400C2F2000000680521697136
:1021700008B90020A880687905286AD8DFE800F04F
:1021800003151C24486240F2DC610020C2F2000109
:10219000C5E90200C5E90400086040F2D811C2F2A6
:1021A0000001C1E90000886053E000204FF07E513B
:1021B000C5E9020128614CE000204FF07E51C5E9DD
:1021C0000201C5E9040044E040F2DC66C2F2000608
:1021D00096ED000AF7EE000A03F0E2FF95ED051A0E
:1021E0009FED1F2A49F69A1131EE022A85ED052A44
:1021F0009FED1C2A85ED020A21EE021A30EE010A3B
:102200000020C3F6997186ED000AC5E9030120E0BC
:1022100040F2DC66C2F2000696ED000AF7EE000A14
:1022200003F0BEFF9FED0D1A49F69A1185ED020AE3
:1022300030EE010A0020C3F6997186ED000AC5E967
:10224000030106E00499D8688968A8600020C5E900
:10225000030105F1080207CA07C470BD2B75DA3AFD
:102260002B755A3A17B751380121016070470000A9
:102270004FF0A04020210160704700002DE9F0419F
:1022800040F20016C5F20006044606F500708442CE
:10229000884610D006F5407000F0CEF8054606F5E9
:1022A000806000F0C9F840EA050706F5A06000F07C
:1022B000C3F8054608E04FF0A04000F0BDF8054621
:1022C000304600F0B9F8074657EA05001CBF012068
:1022D000BDE8F081D8E90001A26843F2E003CFF63F
:1022E000C07302EA030231B10843D8E90213104374
:1022F0000843184300E01043A0600020BDE8F081CF
:1023000081684FF6C072C5F6FF7211408160704758
:1023100081684FF6C072C7F6FF72114001318160CB
:102320007047000040F20410C5F20000016841F05F
:1023300020010160704700000420C5F20000016820
:1023400041F040010160704781684FF6C072C6F6E7
:10235000FF72114001F1805181607047B0B50D46A8
:10236000044600F069F800281CBF0120B0BD686871
:10237000E16821F0047120B1D5E90223114319432A
:1023800001E0EA681143E160E16C2B6840F2FF1262
:10239000914318430843E0640020B0BDC1684FF684
:1023A000FF72C7F6DF72114001F10041C160704752
:1023B000D0F84CC001F01F011F238B40C2F3846290
:1023C0002CEA030302FA01F11943C16470470000CB
:1023D000C26C22F4C0721143C164704781684FF629
:1023E000C072C7F6FF72114008318160704700006B
:1023F000B0B50D46044600F01FF800281CBF0120B0
:10240000B0BDE0684CF21801884395E80E0008431F
:1024100010431843E0600020B0BD0000006800F0E9
:10242000010070474FF0A0400068C0F340107047B3
:102430008068C00F70470000806800F0010070479E
:10244000B0B50D460446FFF7F7FF00281CBF01207A
:10245000B0BDD5E90001E2684CF21C03CFF6F07381
:1024600002EA030219B1AB681043184300E01043BD
:102470000C352CCD104318432843E060204600F073
:1024800003F80020B0BD0000026B22F00F021143E0
:1024900001637047D0F830C001F01F011F238B404B
:1024A000C2F384622CEA030302FA01F119430163C7
:1024B0007047000081684FF6C072C7F6FF72114086
:1024C0000431816070470000C1F3406300EB83007A
:1024D000D0F814C0C1F3045107238B402CEA030346
:1024E00002FA01F119434161704700000023D0F85E
:1024F000B020CFF6F87363EA01011140C0F8B010C4
:1025000070470000D0F8C01043F6FF729143C0F846
:10251000C010016921F4803101617047016940F206
:10252000034291430161704781684FF6C072C3F660
:10253000FF72114001F100418160704781B041F2AA
:102540004800C4F20200016841F00801016000681F
:1025500000F008000090009801B0704781B041F28F
:102560004801C4F202010A6802430A60096808408F
:102570000090009801B0704741F22800C4F20200B8
:10258000016841F0080101607047000041F2280035
:10259000C4F20200016821F00801016070470000E8
:1025A00081B041F24C01C4F202010A6802430A60A0
:1025B000096808400090009801B0704781B041F26E
:1025C0004C01C4F202010A6802430A60096808402B
:1025D0000090009801B0704781B041F24C01C4F204
:1025E00002010A6802430A600968084000900098E6
:1025F00001B0704781B041F24C01C4F202010A6897
:1026000002430A60096808400090009801B07047D2
:1026100081B041F24C01C4F202010A6802430A602F
:10262000096808400090009801B0704781B041F2FD
:102630005801C4F202010A6802430A6009680840AE
:102640000090009801B0704781B041F26000C4F280
:102650000200016841F080610160006800F0806064
:102660000090009801B0704781B041F26000C4F260
:102670000200016841F400510160006800F400505C
:102680000090009801B0704740F60040C4F202008C
:1026900001684FF60002CFF68772114041F4002125
:1026A00041F061010160704740F60040C4F2020051
:1026B000006800F00F00704740F60840C4F20200C6
:1026C0000068704740F60441C4F202010860704798
:1026D00040F63C00C5F20000016821F48071016001
:1026E0007047000040F60000C5F20000016821F0CC
:1026F000020101607047000040F60000C5F20000D2
:10270000016841F0010101607047000070B5154695
:102710000E46044600F058F800281CBF012070BD8A
:10272000A86828B3C0282ED1216806F01002C02363
:1027300093409943904008432060206E40F60F710B
:10274000914020EA010ED5E900136FF0C00000EAC5
:10275000831040EA9100904040EA0E00D5F80CC08A
:102760002066C6F3C01004EB8000C0F858C01AE021
:10277000206806F01001FC222B688A40904303FA7F
:1027800001F108430EE0216806F0100240F6FC73E8
:10279000934021EA030C2B68E968184308439040F2
:1027A00040EA0C002060E06B06F0100107228A402E
:1027B00005F1100690434CCE1A43324302FA01F160
:1027C0000843E063002070BD006801F01001C840BC
:1027D00000F001007047000040F63C00C5F2000028
:1027E0000168022262F38F310160704740F63C00BD
:1027F000C5F20000016821F400710160704700001B
:1028000042F20000C4F20200006800F00F007047BE
:1028100042F20000C4F202000168042262F30301E4
:10282000016070472DE9F0410C46096891FAA1F268
:10283000B2FA82F731FA07F235D005464FF00108B7
:102840000EE062692846314600F046F86268284684
:10285000314600F059F82168013731FA07F022D0EB
:1028600008FA07F011EA0006F5D06068013801287F
:1028700009D8A2682846314600F06CF82168E26861
:10288000284600F051F822692846314600F052F8F7
:1028900060680228DAD1FF2ED3D862692846314613
:1028A00000F00AF8D2E70020BDE8F0812820C4F645
:1028B000000020210160704791FAA1F1B1FA81F185
:1028C000D0F820C089000F238B402CEA030302FAC2
:1028D00001F1194301627047090A91FAA1F1B1FAB5
:1028E00081F1D0F824C089000F238B402CEA030328
:1028F00002FA01F119434162704700001820C4F642
:10290000000020210160704791FAA1F1B1FA81F134
:10291000D0F800C0490003238B402CEA030302FADD
:1029200001F119430160704743688B4351431943D8
:102930004160704791FAA1F1B1FA81F1D0F80CC071
:10294000490003238B402CEA030302FA01F11943E7
:10295000C160704791FAA1F1B1FA81F1D0F808C0D5
:10296000490003238B402CEA030302FA01F11943C7
:1029700081607047B0B513A2125C46F6803C14A388
:10298000C4F2010C15A413F800E052F80C5054F8EE
:1029900020400EEB0C0325EA040E1AA4245C032548
:1029A00005FA04F444EA0E0542F80C5018A522A4D6
:1029B000DA6B55F82050205CAA4301FA00F010436E
:1029C000D863B0BD000000007C7C7C7C7C7C000077
:1029D0000004080C3C3C3C3C3C3C00000000070070
:1029E000000038000000C0010000000E07000000D9
:1029F00070000000000700000070000000000700E9
:102A000000007000101316190004080C10140000C8
:102A1000FFFFFFFFFFFFFFFFFFFFFFFFFFFFFFFFC6
:102A20001F000000E0030000007C000000001F0009
:102A30000000E0030000007C0000000000050A1018
:102A4000151A000046F6CC30C4F20100016841F0CE
:102A50000E0101607047000090FAA0F0B0FA80F01B
:102A6000EF3046F6EE31C0B2C0F6000131F810008A
:102A700046F6B801C4F20101425822F000724250F9
:102A80007047000090FAA0F0B0FA80F0EF3046F600
:102A9000EE31C0B2C0F6000131F8100046F6B801C0
:102AA000C4F201014258092363F3184242507047AF
:102AB00090FAA0F0B0FA80F0EF3046F6EE31C0B2F6
:102AC000C0F6000131F8100046F6B801C4F2010169
:102AD0004258052363F38C224250704790FAA0F0CD
:102AE000B0FA80F0EF3046F6EE31C0B2C0F6000129
:102AF00031F8100046F6B801C4F20101425822F440
:102B0000007242507047000090FAA0F0B0FA80F0D6
:102B1000EF3046F6EE31C0B2C0F6000131F81000D9
:102B200046F6B801C4F201014258092363F30802D2
:102B30004250704746F69830C4F20100016841F4F3
:102B40004F7101607047000090FAA0F046F698318E
:102B5000B0FA80F0C0F6000146F6FC32095C46F699
:102B6000B03CC0F60002C4F2010C105C51F80C300D
:102B7000202202FA00F0184341F80C0070470000D0
:102B800090FAA0F046F69831B0FA80F0C0F6000155
:102B900046F6FC32095C46F6B03CC0F60002C4F2D0
:102BA000010C105C51F80C30042202FA00F023EA08
:102BB000000041F80C00704746F6B830C4F201003E
:102BC000016821F0404101607047000090FAA0F0D8
:102BD00046F69831B0FA80F0C0F6000146F6FC32B5
:102BE000095C46F6B03CC0F60002C4F2010C105C71
:102BF00051F80C30182202FA00F023EA000041F8E4
:102C00000C00704790FAA0F046F69831B0FA80F0C8
:102C1000C0F6000146F6FC32095C46F6B03CC0F650
:102C20000002C4F2010C105C51F80C300322824007
:102C300023EA0202012303FA00F0104341F80C00DA
:102C40007047000046F69430C4F20100016841F478
:102C50004F7101607047000046F68431C4F20101F3
:102C60000A68C0F3064010430860704746F6883093
:102C7000C4F201000068C0F30040704790FAA0F071
:102C800046F6A231B0FA80F0C0F6000146F60642E0
:102C900031F8101046F6E40CC0F60002C4F2010C44
:102CA000105C51F80C30402202FA00F023EA0000D8
:102CB00041F80C007047000090FAA0F046F6A231EF
:102CC000B0FA80F0C0F6000146F6064231F8101066
:102CD00046F6E40CC0F60002C4F2010C105C51F898
:102CE0000C303022824023EA0202202303FA00F053
:102CF000104341F80C00704790FAA0F046F6A2315C
:102D0000B0FA80F0C0F6000146F6064231F8101025
:102D100046F6E40CC0F60002C4F2010C105C51F857
:102D20000C30082202FA00F023EA000041F80C00FF
:102D30007047000090FAA0F046F6A231B0FA80F099
:102D4000C0F6000146F6064231F8101046F6E40CD3
:102D5000C0F60002C4F2010C105C51F80C300422E1
:102D600002FA00F023EA000041F80C00704700006E
:102D700090FAA0F046F6BA31B0FA80F0C0F6000141
:102D800031F8100046F6C001C4F2010100224250A1
:102D90007047000090FAA0F046F6BA32B0FA80F020
:102DA000C0F6000232F8100046F6BC02C4F201027E
:102DB0008150704790FAA0F046F6A231B0FA80F048
:102DC000C0F6000146F6064231F8101046F6E40C53
:102DD000C0F60002C4F2010C105C51F80C30022263
:102DE00002FA00F023EA000041F80C0070470000EE
:102DF00080B50FA1085C46F60041C4F201014FF016
:102E00001F0E0A680EFA00F3B0F1200C58BF002321
:102E100022EA0302C0F120000A602EFA00F04A689C
:102E200058BF0EFA0CF022EA0000486080BD00BFD7
:102E300000060C121820262C3238000046F600003E
:102E4000C4F20100016841F43011016070470000D4
:102E500090FAA0F0B0FA80F0F03046F6EE31C0B251
:102E6000C0F6000131F8101046F60002C4F201026B
:102E70008B584FF0C00C23F020038B5004A3185C38
:102E80008B580CFA00F023EA00008850704700BF0E
:102E9000000101010101010090FAA0F0B0FA80F0F8
:102EA000F03046F6EE31C0B2C0F6000131F8100045
:102EB00046F60001C4F20101425822F0006242507D
:102EC0007047000090FAA0F0B0FA80F0EF3046F6BC
:102ED000EE31C0B2C0F6000131F8100046F68001B4
:102EE000C4F20101425822F04002425070470000F3
:102EF00090FAA0F0B0FA80F0F03046F6EE31C0B2B1
:102F0000C0F6000131F8100046F60001C4F20101DC
:102F1000425822F4806242507047000090FAA0F0BC
:102F2000B0FA80F0EF3046F6EE31C0B2C0F60001E4
:102F300031F8100046F68001C4F20101425822F433
:102F4000007242507047000090FAA0F0B0FA80F092
:102F5000F03046F6EE31C0B2C0F6000131F8100094
:102F600046F60001C4F20101425822F400624250C8
:102F70007047000090FAA0F0B0FA80F0EF3046F60B
:102F8000EE31C0B2C0F6000131F8100046F6E4019F
:102F9000C4F20101425842F480724250704700006E
:102FA00090FAA0F0B0FA80F0EF3046F6EE31C0B201
:102FB000C0F6000131F8100046F6EC01C4F2010140
:102FC000425822F4406242507047000090FAA0F04C
:102FD000B0FA80F0EF3046F6EE31C0B2C0F6000134
:102FE00031F8100046F6EC01C4F20101425822F417
:102FF000405242507047000046F6A031C4F2010131
:103000000A6822EA000008607047000090FAA0F009
:10301000B0FA80F0EF3046F6EE31C0B2C0F60001F3
:1030200031F8100046F6EC01C4F20101425822F4D6
:10303000803242507047000090FAA0F0B0FA80F061
:10304000F03046F6D232C0B2C0F6000232F81000BC
:1030500046F61C0CC4F2010C50F80C304FF6FF720F
:1030600023EA0202114340F80C10704790FAA0F0D6
:10307000B0FA80F0F03046F6E031C0B2C0F60001A0
:1030800031F8100046F61C01C4F2010142584FF617
:10309000FF739A434250704790FAA0F0B0FA80F064
:1030A000F03046F6EE31C0B2C0F6000131F8100043
:1030B00046F61C01C4F20101425844F2682363F34E
:1030C0000F0242507047000046F6AC10C4F20100F7
:1030D00001680C2262F30F010160704746F6801010
:1030E000C4F20100016821F4404101607047000012
:1030F00090FAA0F0B0FA80F0F03046F6EE31C0B2AF
:10310000C0F6000131F8100046F60001C4F20101DA
:103110004258012363F3C4024250704790FAA0F072
:10312000B0FA80F0EF3046F6EE31C0B2C0F60001E2
:1031300031F8100046F6EC01C4F20101425842F0A9
:10314000100242507047000090FAA0F0B0FA80F0F0
:10315000F03046F6EE31C0B2C0F6000131F8100092
:1031600046F60001C4F20101425822F0C06242500A
:103170007047000090FAA0F0B0FA80F0EF3046F609
:10318000EE31C0B2C0F6000131F8100046F6EC0195
:10319000C4F20101425822F44042425070470000FC
:1031A00090FAA0F0B0FA80F0F03046F6EE31C0B2FE
:1031B000C0F6000131F8101046F6000CC4F2010C04
:1031C00004A251F80C3052F8200023EA000041F824
:1031D0000C007047E0000000A0010000A00100000A
:1031E000A0010000A0010000A0010000A00100005B
:1031F00090FAA0F0B0FA80F0EF3046F6EE31C0B2AF
:10320000C0F6000131F8100046F6EC01C4F20101ED
:10321000425822F4407242507047000090FAA0F0E9
:10322000B0FA80F0F03046F6EE32C0B2C0F60002DE
:1032300032F8100046F6140CC4F2010C50F80C30B1
:103240004FF6FF7223EA0202114340F80C10704758
:1032500090FAA0F0B0FA80F0F03046F6EE32C0B24C
:10326000C0F6000232F8100046F60002C4F2010275
:10327000835823F0070319438150704790FAA0F058
:10328000B0FA80F0F03046F6EE31C0B2C0F6000180
:1032900031F8100046F61801C4F20101425822F03C
:1032A000FF0242507047000090FAA0F0B0FA80F0A0
:1032B000EF3046F6EE31C0B2C0F6000131F8100032
:1032C00046F6D401C4F201010022425070470000CA
:1032D00090FAA0F0B0FA80F0EF3046F6EE31C0B2CE
:1032E000C0F6000131F8100046F6EC01C4F201010D
:1032F000425822F0C00242507047000090FAA0F0FD
:10330000B0FA80F0F03046F6EE31C0B2C0F60001FF
:1033100031F8101046F6000CC4F2010C04A251F86A
:103320000C3052F8200023EA000041F80C007047EE
:10333000000000C0000000F0000000F0000000F0FD
:10334000000000F0000000F0000000F090FAA0F093
:10335000B0FA80F0F03046F6EE31C0B2C0F60001AF
:1033600031F8101046F6000CC4F2010C04A251F81A
:103370000C3052F8200023EA000041F80C0070479E
:10338000000000200000FF010000FF010000FF011D
:103390000000FF010000FF010000FF010000FF012D
:1033A000426822F40042114341607047036841EAD9
:1033B000022123F4F853194301607047016821F09A
:1033C0000101016070470000016821F400210160E3
:1033D00070470000816821F400418160704700005F
:1033E000C16821F40041C16070470000016841F0EC
:1033F0000101016070470000416841F000714160C7
:1034000070470000016821F400310160704700003E
:10341000816841F40041816070470000B0B50D46FD
:103420000446FFF7CBFFD5E902122046FFF7BEFFA7
:103430006968204600F030F82046FFF7D7FF2046A5
:10344000FFF7C8FF2969AA69204600F015F8286926
:1034500010B12046FFF7DCFF2968204600F006F88F
:1034600069692046FFF79CFF0020B0BD026822F486
:103470004012114301607047D0F808C040F2FF735A
:103480002CEA03031143194381607047C16840F27D
:10349000FE729143C16070470161704747F280003E
:1034A000C4F20000016821F48071016070470000DF
:1034B00041F20800C4F20200006800F00C007047FE
:1034C00041F20000C4F20200016841F48031016061
:1034D0007047000041F20000C4F202000068C0F32F
:1034E0004040704741F20C00C4F20200016848F20B
:1034F0000C02C0F2FF72114045F22352C1F20002E9
:10350000114301607047000041F20C00C4F2020058
:10351000016848F20C02CFF6FF12114045F2235227
:10352000114301607047000041F20000C4F2020044
:10353000016841F0807101607047000041F20C00A9
:10354000C4F20200016841F480310160704700005C
:1035500041F20C00C4F20200016841F08071016088
:103560007047000041F20000C4F202000068C0F39E
:103570004060704741F28800C4F2020001680122F5
:1035800062F31D710160704741F20801C4F202014B
:103590000A6822F0F00210430860704741F2080008
:1035A000C4F20200016821F4E0610160704700008C
:1035B00041F20800C4F202000168042262F3CD2146
:1035C0000160704741F28800C4F2020001680222E3
:1035D00062F319610160704741F2880CC4F2020C79
:1035E000DCF80020C0F3044303219940C0B222EA72
:1035F000010198400843CCF80000704741F20800F0
:10360000C4F20200016841F003010160704700004C
:1036100041F28801C4F202010A6822EA104280B233
:10362000104308607047000040F20801C2F2000138
:103630000860704743F22040C4F20100016821F0A5
:10364000110101607047000043F20040C4F2010024
:10365000016821F0800101607047000043F20840DA
:10366000C4F20100016821F0800101607047000090
:10367000416941F0010141617047000043F204409B
:10368000C4F20100016841F0800101607047000050
:1036900043F21840C4F20100016841F003010160E7
:1036A0007047000043F21840C4F20100016821F0A5
:1036B000F00101607047000043F22040C4F20100B5
:1036C000016821F00A0101607047000043F21840D0
:1036D000C4F20100016821F00C0101607047000094
:1036E000B0B50D4640F6FF310446C4F20001006853
:1036F0008C4243F2FF31C4F201010ADD8C422EDC20
:1037000040F60042C4F20002944234D042F6004235
:103710002DE0B4F1804F2ED040F20042C4F20002FE
:10372000944228D040F60002C4F20002944222D013
:103730008C4226DC40F2FF71C4F200018C4235DD80
:1037400040F60001C4F200018C4243D040F6004133
:10375000C4F200018C423DD042F6004136E045F211
:103760000002C4F20102944205D043F20042C4F2C6
:1037700001029442DCD16A6820F0700010438C4250
:10378000D8DD44F2FF31C4F201018C4216DD44F26F
:103790000041C4F201018C421CD045F20001C4F288
:1037A00001018C4216D044F600010FE0B4F1804FC5
:1037B00010D040F20041C4F2000109E043F20041A0
:1037C000C4F201018C4205D044F20001C4F20101AF
:1037D0008C4203D1E96820F4407008432060A96856
:1037E000204600F06FF82988204600F06DF8A4F11B
:1037F0008040A0F596304FEAB02009280AD8012170
:1038000001FA00F040F2E521084203D02969204680
:1038100000F05CF82046FFF72BFF0020B0BD000051
:1038200043F21840C4F20100016821F48061016094
:103830007047000080B50346B1F5805F4FF001008E
:103840000CDA012918D010291CD0B1F5807F2AD1BB
:103850001846114601F086F9002080BD18D0B1F558
:10386000803F1BD0B1F5801F18BF80BD18461146A0
:1038700001F050FA002080BD1846114601F0D8F83A
:10388000002080BD1846114601F01EF9002080BDC1
:103890001846114601F0B4F9002080BD18461146C3
:1038A00001F0FCF9002080BD4163704781637047DF
:1038B000C163704701647047826C81647047000087
:1038C000C1647047C162704781627047016370478D
:1038D00043F20840C4F2010001684FF6F872CFF6D7
:1038E000FE721140043101607047000043F208404D
:1038F000C4F2010001684FF68F72CFF6CF7211400B
:10390000403101607047000043F20440C4F20100FE
:1039100001684FF68F72CFF6FF52114050310160AF
:103920007047000043F20440C4F20100016821F432
:1039300070010160704700002DE9F04F97B000263C
:103940001696CDE91466CDE91266CDE91066CDE98B
:103950000E66CDE90C66CDE90A66CDE90866CDE9CB
:103960000666CDE90466CDE90266CDE90066FFF79B
:1039700001FE4FF400504FF40058FEF711FE0420F2
:103980004FF0040AFEF70CFE01200124FEF708FEAA
:1039900002204FF00209FEF703FE40F2004BC4F68E
:1039A000000B6D4603270BF58060294600940197B4
:1039B0000496FEF737FF4FF090402946CDE90047C7
:1039C0000496FEF72FFF4FF090402946CDE900976F
:1039D0000496FEF727FF4FF090402946CDE900A757
:1039E0000496FEF71FFF0820CDE900074FF0904036
:1039F00029460496FEF716FF4FF48040CDE90007F4
:103A0000584629460496FEF70DFF02F02BF800F009
:103A1000F7FF02F037F802F00DF814A94FF0A040BC
:103A2000CDE914661696FEF7E3FC4FF48050CDE91D
:103A30000E69CDE9106813900EA94FF0A0401296C0
:103A4000FEF7FEFC4FF0A040FEF75CFD4FF0A040FB
:103A5000FEF764FD4FF44030CDE90A0640F2003035
:103A6000C5F200000AA9FEF709FCCC20CDE9060941
:103A700006A94FF0A040CDE90866FEF76FFC4FF0B5
:103A8000A040FEF78BFC4FF0A0404FF4C071FEF752
:103A90009FFC4FF0A040FEF733FC4FF0A040FEF734
:103AA00053FC1024C1F2C0044FF0A040062122466E
:103AB000FEF7F0FC4FF0A04021460022FEF704FD87
:103AC0004FF0A0402146FEF711FD2024C1F2F04442
:103AD0004FF0A0400C212246FEF7DCFC4FF0A04046
:103AE00021460022FEF7F0FC4FF0A0402146FEF7F1
:103AF000FDFC4024C1F620144FF0A04012212246C4
:103B0000FEF7C8FC4FF0A04021460022FEF7DCFC87
:103B10004FF0A0402146FEF7E9FC0224C0F23044F9
:103B20004FF0A04009212246FEF742FC4FF0A04092
:103B300021460022FEF7C8FC4FF0A0402146FEF7C8
:103B4000D5FC0424C0F660044FF0A04040F20F11F1
:103B50002246FEF72DFC4FF0A04021460022FEF742
:103B6000B3FC4FF0A0402146FEF7C0FC0824C0F68D
:103B700090444FF0A04040F215212246FEF718FC79
:103B80004FF0A04021460022FEF79EFC4FF0A040DF
:103B90002146FEF7ABFC17B0BDE8F08F2DE9F04FE2
:103BA00093B000261296CDE91066CDE90E66CDE9F8
:103BB0000C66CDE90A66CDE90866CDE90666CDE971
:103BC0000466CDE90266CDE90066FFF7D3FC4FF449
:103BD00000504FF40058FEF7E3FC04204FF0040BB4
:103BE000FEF7DEFC01204FF00109FEF7D9FC40F69C
:103BF0000004C4F600046D464FF0020A0327204675
:103C00002946CDF800A001970496FEF70BFE20464A
:103C10002946CDE900B70496FEF704FE4020CDE921
:103C200000074FF0904029460496FEF7FBFD8020E8
:103C3000CDE900074FF0904029460496FEF7F2FDCB
:103C40001020CDE90007204629460496FEF7EAFD3C
:103C500001F008FF00F0D4FE01F014FF01F0EAFECD
:103C600040F20014C5F2000410A92046CDE9106608
:103C70001296FEF7BDFB4FF48050CDE90A69CDE9FD
:103C80000C680F900AA920460E96FEF7D9FB204635
:103C9000FEF738FC2046FEF741FCD020CDE9060AAD
:103CA00006A92046CDE90866FEF758FB2046FEF738
:103CB00075FB20468021FEF78BFB2046FEF720FB9C
:103CC0002046FEF741FB8025C1F6505520460621CF
:103CD0002A46FEF7DFFB204629460022FEF7F4FBCA
:103CE00020462946FEF702FC40F20015C2F280157C
:103CF00020460C212A46FEF7CDFB2046294600220D
:103D0000FEF7E2FB20462946FEF7F0FB0825C0F649
:103D10009045204609212A46FEF74AFB20462946BF
:103D20000222FEF7D1FB20462946FEF7DFFB1025D5
:103D3000C1F2C005204640F20F112A46FEF738FBBB
:103D4000204629460222FEF7BFFB20462946FEF701
:103D5000CDFB2025C1F2F045204640F215212A4630
:103D6000FEF726FB204629460222FEF7ADFB204641
:103D70002946FEF7BBFB13B0BDE8F08F80B5FEF718
:103D8000DDFB80BD10B58EB000244FF480300D9463
:103D9000CDE90B44CDE90944CDE90744CDE905441B
:103DA000CDE90344CDE90144FEF708FC0120FEF70C
:103DB00005FC102001900320029001A94FF09040D3
:103DC0000594FEF72FFDFEF707FDFEF70FFD40F609
:103DD00000000121C5F20000C0F2112107AACDE9BF
:103DE00007440994CDE90B440D94FEF78FFCFEF7D0
:103DF00079FCFEF76DFC0EB010BD000080B504200C
:103E0000FEF7ACFB0120FEF7A9FB0B2000210022EE
:103E1000FDF716FC0B20FDF70FFC0C200021002203
:103E2000FDF70EFC0C20FDF707FC0D200021002201
:103E3000FDF706FC0D20FDF7FFFB80BD80B540F2CD
:103E4000E83046F60041C2F20000C4F20001002250
:103E5000C0E900124FF0100C01230221C0E9022238
:103E6000C0F80F20C0E905C3C0E90711C0E9093354
:103E7000C0E90B33C0E90D22C263FDF7F5F8002855
:103E800018BFFCF72DFF80BD2DE9F04786B0002755
:103E900041F24C000597CDE90377CDE90177C4F2F3
:103EA0000200016840F6000541F00401016001686C
:103EB000C4F6000501F00401009100990168002298
:103EC00041F02001016001684FF4404601F02001FB
:103ED00000910099016841F001010160016801F061
:103EE000010100910099016841F00201016001683F
:103EF00001F0020100910099016841F008010160A0
:103F000000684FF4404100F00800009000982846F7
:103F1000FDF720FB4FF090404FF481510022FDF758
:103F200019FB05F580642046042100224FF00408A7
:103F3000FDF710FB019601AE4FF00109284631460E
:103F4000CDE902970497FDF72DFA082001904FF470
:103F5000881A28463146CDE902A7FDF723FA20202A
:103F6000CDE90109032004904FF0904031460397BA
:103F7000FDF718FA0720CDE9010AA5F58060314662
:103F80000397FDF70FFA4FF48050CDE901094FF088
:103F900090403146CDE90377FDF704FA20463146DB
:103FA000CDE90189CDE90377FDF7FCF90620002171
:103FB0000022FDF745FB0620FDF73EFB0720002110
:103FC0000022FDF73DFB0720FDF736FB082000210E
:103FD0000022FDF735FB0820FDF72EFB092000210C
:103FE0000022FDF72DFB0920FDF726FB06B0BDE8FA
:103FF000F08700002DE9F04F87B00020CDE90500E3
:10400000CDE90300CDE90100FEF71EFBFEF71AFD26
:10401000FEF72CFE0028FBD0FEF7CEFD0220FEF7B7
:10402000F1FD0220FEF7ACFD0220FEF7CFFD0220DD
:10403000FEF78AFD0420FEF7E5FD0420FEF7A0FD53
:104040000420FEF7C3FD0420FEF77EFD0820FEF7E6
:10405000D9FD0820FEF794FD0820FEF7B7FD0820E3
:10406000FEF772FD01204FF48001FEF783FC012072
:10407000FEF7BEFE03204FF48011FEF77BFC032009
:10408000FEF7B6FE4FF480300021FFF7E1F84FF461
:104090008030FFF72DF84FF480304FF6DF71FFF7D7
:1040A000BDF84FF48030FFF7E9F84FF48030FEF7A9
:1040B000CFFE4FF48030FFF773F84FF48030FEF7F7
:1040C00043FF4FF48030FEF713FF4FF48030FFF7CB
:1040D0003BF84FF48030FEF7DFFE4FF48030FFF7FF
:1040E0000DF94FF48030FFF731F94FF48030FEF7CF
:1040F00083FF4FF48030FEF7AFFD00BFFEF7B6FD43
:104100000028FBD04FF480200321FFF7A1F84FF4E3
:104110008020FEF7EDFF4FF4802048F2D041FFF7FA
:104120007DF84FF48020FFF7A9F84FF48020FFF7C7
:10413000E5F84FF48020FEF7F1FF4FF48020FEF702
:1041400065FF4FF48020FFF7C3F84FF48020FFF79E
:1041500011F84FF48020FEF739FF4FF48020FEF76E
:104160001FFF4FF48020FFF743F84FF48020FEF745
:10417000EBFF4FF48020FEF76BFE4FF48020FFF73B
:104180000FF84FF48020FEF7DFFE4FF48020FEF79B
:10419000AFFE4FF48020FEF77FFE4FF48020FFF744
:1041A000D5F84FF48020FFF77FF84FF48020FEF71A
:1041B00089FE4FF48020FEF7DDFE4FF48020FEF7ED
:1041C0001BFF4FF48020FEF747FD4FF48020FEF7E1
:1041D000A5FE4FF48020FEF75FFF4FF48020FEF72E
:1041E00067FC4FF48020FEF78FFC4FF48020FEF731
:1041F00075FC4FF48020FEF745FC4FF48020FEF75D
:104200002BFC0420FEF7D6FD04200821FEF7C2FD9A
:104210000420FEF7ADFD0420FEF78CFD0420FEF720
:104220006BFD0420FEF748FD0420FEF727FD082063
:10423000FEF7C0FD08200021FEF7ACFD0820FEF7C8
:1042400097FD0820FEF776FD0820FEF755FD0820B3
:10425000FEF732FD0820FEF711FD00BFFEF706FD58
:104260000028FBD04FF400200321FEF7F1FF4FF4AC
:104270000020FEF73DFF4FF4002048F2D041FEF74A
:10428000CDFF4FF40020FEF7F9FF4FF40020FFF7B9
:1042900035F84FF40020FEF741FF4FF40020FEF701
:1042A000B5FE4FF40020FFF713F84FF40020FEF79F
:1042B00061FF4FF40020FEF789FE4FF40020FEF767
:1042C0006FFE4FF40020FEF793FF4FF40020FEF73F
:1042D0003BFF4FF40020FEF7BBFD4FF40020FEF73C
:1042E0005FFF4FF40020FEF72FFE4FF40020FEF793
:1042F000FFFD4FF40020FEF7CFFD4FF40020FFF745
:1043000025F84FF40020FEF7CFFF4FF40020FEF712
:10431000D9FD4FF40020FEF72DFE4FF40020FEF7EC
:104320006BFE4FF40020FEF797FC4FF40020FEF7E1
:10433000F5FD4FF40020FEF7AFFEFEF7C5FEFEF7D9
:10434000CDFE4FF40020FEF7B3FB4FF40020FEF744
:10435000DBFB4FF40020FEF7C1FB4FF40020FEF71B
:1043600091FB4FF40020FEF777FB1020FEF722FDB3
:1043700010200821FEF70EFD1020FEF7F9FC10209A
:10438000FEF7D8FC1020FEF7B7FC1020FEF794FCD7
:104390001020FEF773FC2020FEF70CFD20200021EA
:1043A000FEF7F8FC2020FEF7E3FC2020FEF7C2FC1D
:1043B0002020FEF7A1FC2020FEF77EFC2020FEF747
:1043C0005DFC00BFFEF752FC0028FBD04FF400104C
:1043D00003214FF0030AFEF73BFF4FF40010FEF7F6
:1043E00087FE4FF4001048F2D041FEF717FF4FF45C
:1043F0000010FEF743FF4FF40010FEF77FFF4FF46D
:104400000010FEF78BFE4FF40010FEF7FFFD4FF497
:104410000010FEF75DFF4FF40010FEF7ABFE4FF407
:104420000010FEF7D3FD4FF40010FEF7B9FD4FF476
:104430000010FEF7DDFE4FF40010FEF785FE4FF48E
:104440000010FEF705FD4FF40010FEF7A9FE4FF433
:104450000010FEF779FD4FF40010FEF749FD4FF410
:104460000010FEF719FD4FF40010FEF76FFF4FF438
:104470000010FEF719FF4FF40010FEF723FD4FF474
:104480000010FEF777FD4FF40010FEF7B5FD4FF476
:104490000010FEF7E1FB4FF40010FEF73FFD4FF474
:1044A0000010FEF7F9FD4FF40010FEF701FB4FF48A
:1044B0000010FEF729FB4FF40010FEF70FFB4FF43E
:1044C0000010FEF7DFFA4FF40010FEF7C5FA4FF4C4
:1044D00080704FF48078FEF76DFC4FF480700821F7
:1044E000FEF758FC4FF48070FEF742FC4FF48070EA
:1044F000FEF720FC4FF48070FEF7FEFB4FF4807057
:10450000FEF7DAFB4FF48070FEF7B8FB4FF4007053
:104510004FF40079FEF74EFC4FF4007000210027A5
:10452000FEF738FC4FF40070FEF722FC4FF40070E9
:10453000FEF700FC4FF40070FEF7DEFB4FF4007056
:10454000FEF7BAFB4FF40070FEF798FB022002263C
:10455000FEF742F80420FEF73FF80120FEF73CF892
:1045600040F200454FF4805001A9C4F6000501ACAB
:1045700081E841044FF00D0B28462146CDE9047730
:10458000CDF818B0FEF74EF94FF4005001A981E8BC
:10459000410428462146CDE90477CDF818B0FEF74E
:1045A00041F905F5806528462146CDE90186CDE92A
:1045B00003A7CDE9057AFEF735F928462146CDE96E
:1045C0000196CDE903A7CDE9057AFEF72BF94FF463
:1045D000806001A981E841044FF090402146CDE977
:1045E0000477CDF818B0FEF71DF94FF4006001A96B
:1045F00081E841044FF090402146CDE90477CDF8A1
:1046000018B0FEF70FF907B0BDE8F08F2DE9F041C3
:104610008EB000254FF440200D95CDE90B55CDE926
:104620000955CDE90755CDE90555CDE90355CDE946
:104630000155FEF7D1FF01204FF00108FDF7DAFF29
:1046400002200227FDF7D6FF4FF4004001ACCDE970
:10465000010704264FF090402146CDE90358059507
:104660000696FEF7DFF88020CDE9010740F2004012
:10467000C4F600002146CDE90358CDE90556FEF702
:10468000D1F84FF40010FDF7D1FF4AF2FB7045F26C
:104690000044C3F2A000C4F200040795CDE9080568
:1046A00007A92046CDE90A55CDE90C55FEF7B6FE1F
:1046B0002046FEF7A1FE2046FEF7E8FE2046FEF764
:1046C0008FFE2046FEF780FE2046FEF79BFE0EB0D2
:1046D000BDE8F081F0B58DB000254FF480100C9549
:1046E000CDE90A55CDE90855CDE90655CDE9045582
:1046F000CDE90255CDE90055FEF76EFF01200126F8
:10470000FDF778FF02200227FDF774FF4FF4807059
:104710006C46CDE900074FF090402146CDE90256A6
:10472000CDE90457FEF77EF82020CDE900070820E8
:10473000CDE90256059040F20040C4F60000214643
:104740000495FEF76FF84FF08040FDF76FFF4AF2D7
:10475000FB7047F60004C3F2A000C4F20004069503
:10476000CDE9070506A92046CDE90955CDE90B5548
:10477000FEF754FE2046FEF73FFE2046FEF786FE7B
:104780002046FEF72DFE2046FEF71EFE2046FEF7D1
:1047900039FE0DB0F0BD000010B540F24C4043F6BC
:1047A0000041C2F20000C4F200014FF48272002303
:1047B0004FF4706C4FF4007E182480E80E1007212F
:1047C0000822C0E90433C0E906E4C0E90833C0E9BF
:1047D0000A31C0E90C32FCF7BDFF002818BFFCF716
:1047E0007FFA10BD2DE9F04194B000261396CDE973
:1047F0001166CDE90F66CDE90D66CDE90B66CDE911
:104800000966CDE90766CDE90566CDE90366CDE920
:104810000166FDF729FF04204FF00408FDF7F8FEBC
:1048200002200227FDF7F4FE40F600044020C4F603
:10483000000401ADCDE9010720462946CDE9036614
:10484000CDE90568FDF7EEFF8020CDE901072046A0
:104850002946CDE90366CDE90568FDF7E3FF4FF48E
:104860000070CDE901070A20CDE903660690A4F5A2
:10487000806029460596FDF7D5FF43F200444FF6C8
:10488000FF70C4F20104ADF83C601096CDE911064A
:104890000FA920461396FEF723FFFEF7D5FEFEF77D
:1048A000C9FEFEF7F5FEFEF711FFFEF7FBFEFEF771
:1048B00003FFFEF7E3FEFFF719F8FFF709F8702092
:1048C000CDE9070607AA20461021CDE90966CDE902
:1048D0000B66CDE90D66FEF7ADFFFEF7A1FFFFF712
:1048E00013F8FFF71FF8FEF7B9FE14B0BDE8F0812A
:1048F00080B540F2B04043F60001C2F20000C4F2BD
:10490000010146F2E07200234FF00C0CC0F23502B8
:1049100080E80E00C0E90333C0E905C3C0E90733EE
:10492000C0E90933FDF7EAF9002818BFFCF7D8F908
:1049300040F2B040C2F200000021FDF72DF800283F
:1049400018BFFCF7CDF940F2B040C2F200000021E0
:10495000FCF7FCFF002818BFFCF7C2F940F2B0409A
:10496000C2F20000FCF7A6FF002818BFFCF7B8F958
:1049700080BD000080B540F2445044F60001C2F210
:104980000000C4F2000142F2A05200234FF00C0CD0
:10499000C0F2260280E80E00C0E90333C0E905C377
:1049A000C0E90733C0E90933FDF7A8F9002818BFAB
:1049B000FCF796F940F24450C2F200000021FCF7E7
:1049C000EBFF002818BFFCF78BF940F24450C2F20D
:1049D00000000021FCF7BAFF002818BFFCF780F99F
:1049E00040F24450C2F20000FCF764FF002818BFF8
:1049F000FCF776F980BD0000FEE70000FEE700004E
:104A00000020704700F0070080F00703042B28BF48
:104A100004234FF0FF3C03380CFA03F338BF0020A7
:104A2000994381400CFA00F022EA000008437047E5
:104A30002DE9F0410446006A20F001002062206A5E
:104A4000D4F80480D4F818C00A6920F0030022F0DA
:104A500001020243A4F18040D1E900E5A0F59630BF
:104A60004FEAB020092845EA02051AD8012202FAC5
:104A700000F040F2E522104213D001F1140725F0B6
:104A80000C00E0CF6FF004038A6803EA8503184343
:104A900040EA820528F4407026F40072104340EA90
:104AA00047084FF68C70CFF6FE7000EA0C0040EA23
:104AB0000E00C4F80480A061C9682046FEF7F4FE29
:104AC0002562BDE8F08100002DE9F0410446006A4E
:104AD0006FF0100620F010002062206A6368D4F89E
:104AE00018C00A6920F0300006EA02120243A4F15D
:104AF0008040D1E900E5A0F596304FEAB0200928C2
:104B000042EA05151DD8012202FA00F040F2E52222
:104B1000104216D001F1140825F0C00098E8600199
:104B20006FF040078A6807EA8515284340EA821536
:104B300023F44060B20040F603039A43104340EA76
:104B4000C80348F6FF40CFF6FF6000EA0C0040EAD9
:104B50000E206360A061C9682046FEF7A7FE2562AB
:104B6000BDE8F0812DE9F0410446006A40F2FF16ED
:104B700020F480702062206A6368D4F81CC00A693F
:104B800020F440701202B2430243A4F18040D1E904
:104B900000E5A0F596304FEAB020092842EA052545
:104BA0001DD8012202FA00F040F2E522104216D090
:104BB00001F1140825F4406098E8600140F2FF77A5
:104BC000AD028A68BD43284340EA822523F4405061
:104BD000320142F20F039A43104340EA48134FF662
:104BE0008C70CFF6FE7000EA0C0040EA0E006360A5
:104BF000E061C9682046FEF75BFE2562BDE8F081F2
:104C00002DE9F0410446006A41F6FF7620F4805019
:104C10002062206A6368D4F81CC00A6920F44050FE
:104C20001203B2430243A4F18040D1E900E5A0F5AC
:104C300096304FEAB020092842EA05351DD80122F6
:104C400002FA00F040F2E522104216D001F11408F9
:104C500025F4404098E8600147F6FF77AD038A6885
:104C6000BD43284340EA823523F44040B20148F274
:104C70003F039A43104340EAC81348F6FF40CFF67B
:104C8000FF6000EA0C0040EA0E206360E061C96842
:104C90002046FEF70FFE2562BDE8F08170B50446A0
:104CA000006AA4F1804520F480302062A5F5963595
:104CB000206AD4F850E0D1E9003C0A694FEAB525F2
:104CC000092D0ED8012606FA05F540F2E5263542F3
:104CD0001FBF65688E6925F4803545EA062518BF33
:104CE00065600025CFF6FE7520F4403005EA0242EB
:104CF00010434FF68F72CFF6FE7202EA0E021A438D
:104D00002265C96840EA0C452046FEF7D5FD2562BC
:104D100070BD000070B50446006AA4F1804520F41F
:104D200080102062A5F59635206AD4F850E0D1E9CC
:104D3000003C0A694FEAB525092D0ED8012606FA6E
:104D400005F540F2E52635421FBF65688E6925F4FA
:104D5000802545EA862518BF65600025CFF6E075F9
:104D600020F4401005EA0252104348F6FF72CFF6D5
:104D7000FF6202EA0E0242EA03222265C96840EAA3
:104D80000C552046FEF79CFD256270BD90ED001A83
:104D900090ED012A90ED040A90ED053A31EE421AA9
:104DA0009FED252A21EE033A20EE022A33EE022A55
:104DB00090ED073A80ED091AB4EE432AF1EE10FAAD
:104DC00080ED022A06DC90ED083AB4EE432AF1EEBB
:104DD00010FA08DA90ED032A80ED023A32EE432A07
:104DE00080ED032A01E00021C16090ED032A90EDDF
:104DF000063AB5EE402AF1EE10FA21EE031A15D06C
:104E0000B5EE401AF1EE10FA4FF0FF32B5EE402A3F
:104E10004FF0FF31C8BF0122F1EE10FAC8BF0121E7
:104E20009FED062A914208BFB0EE421A30EE010A09
:104E300080ED040A704700BF17B75138000000002A
:104E400040F25C004CF6CD4C002200230021C2F25F
:104E50000000C3F64C7CC4F22002C4F22013CCF252
:104E60002011C0E9052CC0E9073140F2B400C2F2BC
:104E70000000C0E9052CC0E9073140F21C1049F6DA
:104E8000A63C4DF20A72C2F20000C3F6C43CC3F65F
:104E900023424FF080434FF04041C0E9052CC0E968
:104EA00007317047704700007047000010B590ED63
:104EB000002A9FED773A90ED014AD0F804E0B6EE73
:104EC000000A9FED747A22EE031A24EE006AC2F8FB
:104ED00004E031EE465A22EE071A31EE461A92ED00
:104EE000016A4FF0000CB5EE406AF1EE10FAB5EE33
:104EF000405AA2F830C082ED025A82ED031AC4BFB4
:104F000001201086F1EE10FA02DD108E02301086BC
:104F1000B5EE401AF1EE10FA02DD108E0430108664
:104F2000108EB7EE001A062844D891ED015A9FED75
:104F30005A6A81EE055A24EE066A24EE033AB7EE69
:104F4000084A22EE042A0FF21A0132EE034A33EE27
:104F5000427A26EE052A24EE053A27EE054ADFE8D6
:104F600000F0040A0D10171E21004FF07C51C2E919
:104F7000061111621EE082ED044A19E0B1EE422AE8
:104F800001E0B1EE443A82ED043A82ED052A11E0E7
:104F9000B1EE422A82ED042A82ED054A0AE0B1EE22
:104FA000433A03E0B1EE432AB1EE443A82ED042ADB
:104FB00082ED053A92ED042A92ED053A32EE034A6B
:104FC000B4EE414AF1EE10FA09DD81EE044A22EE18
:104FD000042A23EE043A82ED042A82ED053A92ED8A
:104FE000042A92ED053A31EE421A31EE431A21EECF
:104FF000001A33EE013A411E32EE030A052982ED12
:10500000091A82ED0A3A82ED0B0A27D802F124042C
:1050100002F1280C02F12C0EDFE801F003070C105E
:105020001318906A7146906114E082ED060A2146D9
:1050300064460FE082ED060A61460BE0506A614665
:1050400006E0506A71469061644603E0906A21462A
:105050009061744608682168C2E9070192ED000A70
:1050600092ED061A21EE000A83ED000A92ED000A85
:1050700092ED071A21EE000A83ED010A92ED000A73
:1050800092ED081A21EE000A83ED020A10BD00BF5E
:10509000D7B35D3FD7B35DBF2DB2DD3FB0B50138AB
:1050A0000024B4EB106F1CBF0120B0BD4EF2100500
:1050B000CEF2000568604FF0FF300F2100F0EAFCEF
:1050C0000720AC6028602046B0BD000080B540F2EB
:1050D000E060C2F200000168322904BF00210160D3
:1050E000016801310160FCF741FA80BD80B582B0F2
:1050F000FDF78EFBFDF784FB0428FBD1FEF7CEF90C
:10510000FEF7DEF9FEF7E6F90128FBD1FEF7FCF920
:10511000FEF7E8F9FEF71CFAFEF710FAFEF704FABC
:10512000FEF720FA0128FBD1FEF768FA8020FEF78F
:105130002BFA00BFFEF7BCF90C28FBD1552000BFAD
:105140000190019810B101980138F9E70020FEF7AD
:105150001BFAFEF723FAFEF72BFA4FF68060C0F633
:105160002120FEF761FA0020FCF71EFA002804BF98
:1051700002B080BDFBF7B4FD4EF68850CEF20000C1
:10518000016841F4700101607047000080B5416E14
:1051900001B3016846F62A4C8A688968C0F6000C9B
:1051A000490F46F6324E1CF80130C0F6000E1EF8CC
:1051B0000110C2F34262DB00B3FBF1F31CF80210F2
:1051C0001EF80220C900B1FBF2F1A0F86A30A0F885
:1051D000681080BD0121A0F86A10A0F8681080BD99
:1051E00080B5816A0A070CD4CA0715D18A071ED474
:1051F0004A0727D4CA0630D48A0639D44A0657D576
:1052000041E00268D0F838C0536823F4004343EA11
:105210000C035360CA07E9D00268D0F82CC0536869
:1052200023F4003343EA0C0353608A07E0D5026895
:10523000D0F830C0536823F4803343EA0C03536042
:105240004A07D7D50268D0F834C0536823F48023C6
:1052500043EA0C035360CA06CED50268D0F83CC0BE
:10526000936823F4805343EA0C0393608A06C5D500
:105270000268D0F840C0936823F4005343EA0C035B
:1052800093604A0614D50268D0F844C05368BCF550
:10529000801F23F4801343EA0C03536008D1D2F833
:1052A00004C0D0F848E02CF4C00343EA0E03536076
:1052B000090658BF80BD0168C06C4A6822F400220C
:1052C0001043486080BD0000B0B582B004460020A5
:1052D000C4F89000FCF744F92168054609680907FD
:1052E0001BD56FF07E4C20464FF4001100222B4658
:1052F000CDF800C000F014FB78B100BF206850E882
:10530000000F216820F0800041E80002002AF5D15A
:105310002020C4F88800032031E02068006840079E
:1053200025D56FF07E4C20464FF4800100222B469D
:10533000CDF800C000F0F4FAC8B100BF206850E812
:10534000000F216820F4907041E80002002AF5D196
:10535000206850E8020F216820F0010041E80202B5
:10536000002AF5D12020C4F88C00032007E020207B
:10537000C4F88800C4F88C000020E0662067002193
:1053800084F8841002B0B0BD80B5806A0021A0F816
:105390005E10A0F85610FCF729FB80BDB0B5846AFA
:1053A0002068D4F88810D4F88C508068212908D15E
:1053B00010F0800005D00020A4F85600204600F030
:1053C000D7F82068222D806808D110F0400005D061
:1053D0000020A4F85E00204600F088F8D4F8900081
:1053E00040F01000C4F890002046FCF7FFFAB0BD72
:1053F00080B50168806A0968890631D40021A0F867
:105400005E1000BF016851E8001F026821F480713E
:1054100042E80013002BF5D1016851E8021F026831
:1054200021F0010142E80213002BF5D1016851E897
:10543000021F026821F0400142E80213002BF5D15F
:105440002021C0F88C10C16E012909D1016851E8F2
:10545000001F026821F0100142E80013002BF5D173
:1054600000210167C16E012904D1B0F85C10FCF77E
:1054700069FA80BDFCF760FD80BD000080B5806AE0
:1054800001210167C16E012905D1B0F85C104908FE
:10549000FCF758FA80BDFCF751FD80BD80B501686E
:1054A000806A0968890618D40021A0F8561000BF48
:1054B000016851E8021F026821F0800142E80213EE
:1054C000002BF5D1016851E8001F026841F040014E
:1054D00042E80013002BF5D180BDFCF7DDFD80BD57
:1054E00080B5806AFCF7E8FD80BD0000016851E8E6
:1054F000001F026821F4907142E80013002BF5D1DF
:105500004FF6FE7CCEF6FF7C026852E8022F03685D
:1055100002EA0C0243E802210029F5D1C16E0129FB
:105520000AD100BF016851E8001F026821F0100194
:1055300042E80013002BF5D12021C0F88C10002187
:10554000C16641677047000080B500BF016851E83F
:10555000001F026821F0400142E80013002BF5D142
:105560002021C0F8881000218167FCF795FD80BDDF
:10557000016851E8001F026821F0C00142E80013F1
:10558000002BF5D1016851E8021F026821F40001E7
:1055900042E80213002BF5D12021C0F88810704793
:1055A000F0B581B004462269D4E902130068676946
:1055B0000A43E1693A43076846F6F316CCF6FF76EC
:1055C0000A4337403A43026042684FF2FF4622F4F2
:1055D00040521A43426048F20002A369C4F200023A
:1055E00090421CBF276A3B438768C1F2FF163740D1
:1055F0003B438360C36A676A23F00F033B43C36284
:1056000044F6FF73C4F2000398424FF0100318DC15
:1056100044F20047C4F20007B84227D044F600071E
:10562000C4F20007B84228D044F60047C4F200078D
:10563000B8423BD141F28803C4F202031B689B09C4
:105640002FE045F20007C4F20007B8421CD0904298
:1056500021D043F60007C4F20107B84226D141F237
:105660008803C4F202031B6880A71BE041F2880391
:10567000C4F202031B689B0813E041F28803C4F2E2
:1056800002031B681B090CE041F28803C4F2020309
:105690001B681B0A05E041F28803C4F202031B6881
:1056A0009B0A6EA703F0030357F82330904242F29F
:1056B0000040C0F2F40011D0B1F5004F1DD1082B0D
:1056C00000F26F800025DFE803F00568766C6F6CF0
:1056D0006C6C73000025FBF7D7FF6CE0082B1BD820
:1056E0000027DFE803F0051920191D1919195100C9
:1056F0000027FBF7C9FFB8B94BE0082B00F2818007
:105700000025DFE803F0057A887E817E7E7E8500B5
:105710000025FBF7B9FF7EE00020012720B938E023
:105720000027FBF7D9FFA0B3616A46F61242C0F624
:10573000000232F811206668B0FBF2F106EB460376
:1057400099424FF00105C0F08080330399427CD824
:1057500000210023FAF75CFD090241EA1061000212
:1057600010EB560041F1000132460023FAF750FDDC
:105770004FF6FF42A0F54071C0F20F0291420AD8E5
:1057800021683D46C86060E04FF4004000270028D3
:10579000CAD13D4659E0012557E00025FBF788FFB7
:1057A00009E00020012506E00025FBF795FF02E057
:1057B0004FF400400025002847D0616A46F61242A7
:1057C000C0F6000232F811106268B0FBF1F0510827
:1057D00001EB4000B0FBF2F04FF6EF72A0F11001C8
:1057E000914208D84FF6F0710140C0F342002268A0
:1057F0000844D06029E0012527E00025FBF758FF89
:1058000009E00020012506E00025FBF765FF02E026
:105810004FF400400025C0B1616A46F61242C0F65E
:10582000000232F811106268B0FBF1F000EB520098
:10583000B0FBF2F04FF6EF72A0F11001914203D8E5
:10584000216880B2C86000E001254FF001100021FE
:10585000A06661672846A16701B0F0BD00000000A6
:105860000400000002000000080000000100000029
:1058700004000000020000000800000010B581656F
:1058800000210446A0F85C20C0F890102220C4F843
:105890008C00D4F8800000B3134645F2F132C0F614
:1058A00000028163216845F27D4C45F29D3EC26253
:1058B000A26DC0F6000CC0F6000E2431C0F830C056
:1058C000C0F834E0FBF78AFB38B11020C4F8900030
:1058D0002020C4F88C00012010BD206950B100BF09
:1058E000206850E8000F216840F4807041E8000211
:1058F000002AF5D1206850E8020F216840F001002D
:1059000041E80202002AF5D1206850E8020F216820
:1059100040F0400041E80202002AF5D1002010BD0D
:105920002DE9F04381B004460068C0690840401A80
:10593000B0FA80F0400990423DD1DDF82080154654
:105940000E46994608F1010709E000BF2068C069CA
:105950003040801BB0FA80F04009A8422FD1002FC0
:10596000F4D0FBF7FDFD0146B8F1000F4FF0030046
:1059700026D0A1EB0901414522D8206801684907DA
:10598000E4D5402EE2D0802EE0D0C16909071AD4B8
:10599000C1690905DAD54FF4006101622046FFF7BD
:1059A000A5FD2020C4F89000002084F88400032086
:1059B00001B0BDE8F083002001B0BDE8F083002015
:1059C00001B0BDE8F083082505622046FFF78EFD93
:1059D0000020C4F8905084F88400012001B0BDE894
:1059E000F083000080B540F2B040C2F20000FBF747
:1059F000FFFF80BDB0B540F24454C2F2000420461F
:105A0000FBF7F6FF40F26E65C2F20005204629461C
:105A10001422FBF76BFF6888297940EA014040F2C5
:105A2000E411C0F50030C2F200010860B0BD000012
:105A3000FEE700004EF20010CEF200004FF480218D
:105A400001607047002848BF704700F01F01012225
:105A500002FA01F14EF200124009CEF2000242F8C1
:105A6000201070474EF60C50CEF200000068C0F3D4
:105A7000022070474EF60C50CEF200000068C0F3D2
:105A8000022070474EF212410001CEF20001087070
:105A9000704700004EF6145300F00F02CEF20003E0
:105AA00009011A4400F16043B0F1FF3FC8BF03F59C
:105AB00064421170704700004EF60C51CEF20001A6
:105AC0000A684FF6FF031A4060F30A2242F0806032
:105AD00040F0FD700860704790ED012A90ED000ADB
